:020000040800F2
:10000000C8060020C10C0008C1040008C304000891
:10001000C7040008CB040008CF040008000000005B
:10002000000000000000000000000000D3040008F1
:10003000D504000800000000D7040008D904000817
:10004000DB0C0008DB0C0008DB0C0008DB0C0008F4
:10005000DB0C0008DB0C0008DB0C0008DB0C0008E4
:10006000DB0C0008DB0C0008DB0C0008DB0C0008D4
:10007000DB0C0008DB0C0008DB0C0008DB0C0008C4
:10008000DB0C0008DB0C0008DB0C0008DB0C0008B4
:10009000DB0C0008DB0C0008DB0C0008DB0C0008A4
:1000A000DB0C0008DB0C0008DB0C0008DB0C000894
:1000B00009090008DB0C0008DB0C0008DB0C000859
:1000C000DB0C0008DB0C0008DB0C0008DB0C000874
:1000D000DB0C00087F0B0008DB0C0008DB0C0008C1
:1000E000DB0C0008DB0C0008DB0C000800F002F859
:1000F00000F03FF80AA090E8000C82448344AAF183
:100100000107DA4501D100F034F8AFF2090EBAE880
:100110000F0013F0010F18BFFB1A43F0010318473B
:10012000F833000018340000103A24BF78C878C1B2
:10013000FAD8520724BF30C830C144BF04680C60ED
:10014000704700000023002400250026103A28BF35
:1001500078C1FBD8520728BF30C148BF0B60704739
:10016000642902F00D83002070471FB51FBD10B534
:1001700010BD02F0CDFB1146FFF7F7FF00F008F8C5
:1001800002F0EBFB03B4FFF7F2FF03BC00F09CFCB2
:1001900000F030FC4FF4A06001F036FB4FF4E1308A
:1001A00000F0A1FC00F040FB5AE1AE4800780128C5
:1001B0007ED10020AC4908606420AC49087000F092
:1001C0004FFBA9480168AA48006803F02FF90446CC
:1001D00002F09CFFA7490860A5480068A249086092
:1001E0004EE0A548006802F0CDFF0746A24800682F
:1001F00002F0C8FF80469C480168404603F016F9AB
:1002000006469E4903F00AF80546394602F0BCFE50
:10021000044602F097FF9A49088008460088632840
:1002200005DD0846018897A002F06AFA02E097A06F
:1002300002F066FA8E480168964802F037FE0546DD
:1002400002F080FF84B2214693A002F059FA874859
:100250000078401E85490870142000F008FC00F06A
:10026000FFFA814801688248006803F0DFF804461D
:1002700002F04CFF7F4908607D4800687A490860B9
:10028000002002F07FFF064677480168304602F002
:100290000DFE04467848006802F074FF05462146CA
:1002A00003F088F808D27148007828B16D4800E062
:1002B0002BE00078012894D000206A49087070492A
:1002C000088014207649087014E076A002F018FA2D
:1002D00000F0C6FA664801686E4802F0E7FD054680
:1002E00002F030FF84B2214670A002F009FA142017
:1002F00000F0BDFB6A4801780078401E684A107023
:100300000029E2D100F0A1FAAAE0564800780228BC
:10031000FAD100205449086064205449087000F064
:100320009FFA534801685048006803F07FF804467C
:1003300002F0ECFE4F4908604D4800684A490860E9
:100340004EE04D48006802F01DFF07464A4800682D
:1003500002F018FF804644480168404602F0A6FDBE
:100360000646464902F05AFF0546394602F00CFEA1
:10037000044602F0E7FE42490880084600886328E8
:1003800005DD084601884AA002F0BAF902E04AA059
:1003900002F0B6F9364801683E4802F087FD05468E
:1003A00002F0D0FE84B221463BA002F0A9F92F480A
:1003B0000078401E2D490870142000F058FB00F012
:1003C0004FFA2B4801682848006803F02FF80446CC
:1003D00002F09CFE27490860254800682249086011
:1003E0002548006802F0CEFE06461F4801683046E8
:1003F00002F05CFD0446002002F0C4FE05462146E2
:1004000002F0D8FE06D21948007818B115480078D5
:10041000022896D00020134908701949088014203A
:100420001F49087012E01FA002F06AF91048016825
:10043000184802F03BFD054602F084FE84B22146D6
:100440001AA002F05DF9142000F011FB14480178A5
:100450000078401E124A10700029E4D100F0F5F92E
:10046000A3E600004A000020080000200000002051
:1004700028000020040000204C00002000009643CB
:10048000020000204130256400000000413030357A
:100490003000000000409C456325640D0A00000008
:1004A0000C00002041323030300000006325640031
:1004B000413125640000000041313035300000003A
:1004C000704700BFFEE700BFFEE700BFFEE700BFCA
:1004D000FEE7704770477047704700000CB500207A
:1004E000019000906C48006840F480306A490860D0
:1004F00000BF6948006800F4003000900198401C7B
:100500000190009818B90198B0F5A06FF1D1624838
:10051000006800F4003010B10120009001E00020DC
:1005200000900098012843D15C48006840F010001A
:100530005A4908600846006820F003000860084631
:10054000006840F002000860534840685249486023
:100550000846406848600846406840F4806048604B
:100560000846406820F47C1048600846406840F423
:10057000E81048600846006840F08070086000BFDE
:100580004548006800F000700028F9D042484068F3
:1005900020F00300404948600846406840F00200EF
:1005A000486000BF3C48406800F00C000828F9D1C2
:1005B0000CBD10B5FFF792FF10BD10B536480068AE
:1005C00040F001003449086008464068344908405A
:1005D0003149486008460068324908402E490860A1
:1005E0000846006820F4802008600846406820F42F
:1005F000FE0048604FF41F008860FFF7DAFF4FF0FD
:1006000000602949086010BD10B5002100200022BB
:10061000214B5B6803F00C0121B1042906D00829A5
:1006200028D107E0214B224C236027E01F4B204CB0
:10063000236023E0184B5B6803F47010164B5B6873
:1006400003F48032022303EB904022B9194B434359
:10065000174C23600DE0104B5B6803F4003323B1AB
:10066000144B4343124C236003E0104B4343104CA4
:10067000236003E00D4B0E4C236000BF00BF064B10
:100680005B68C3F303130C4CE15C094B1B68CB4064
:10069000074C236010BD0000001002400020024003
:1006A0000000FFF8FFFFF6FE08ED00E000127A0000
:1006B0001000002000093D00140000202DE9F04743
:1006C0004FF0000A0120BC4908700020BB490870A7
:1006D000BB49087001221146900701F04EFD00BF92
:1006E000B74800780028FBD0B6480068C0F38B10EC
:1006F00002F0CAFA80460022B34B02F06DF90646BA
:100700000022B24B02F0D4FA044602F033F98246DA
:1007100000220121880701F030FD5046BDE8F08736
:1007200008B50121082000F007FE4FF48040ADF825
:10073000000048208DF8030003208DF80200694670
:10074000A34800F03DFB08BD08B50121082000F0DA
:10075000F3FD2020ADF8000010208DF803000320E9
:100760008DF8020069469A4800F02AFB202198483B
:1007700000F0D3FB08BD00B589B00121084600F0A8
:10078000E8FD0121052000F0D7FD0120ADF8200093
:1007900018208DF8230003208DF8220008A98D4829
:1007A00000F00EFB40F25720ADF818000220ADF823
:1007B00014000020ADF81A00ADF8160005A94FF09E
:1007C000804001F063F900220121880701F0D5FC87
:1007D0001C208DF8000000208DF8010003208DF80A
:1007E000020001208DF80300684601F012F8702025
:1007F000ADF804000120ADF806000020ADF80C00B3
:1008000001A94FF0804001F07EF90821C80601F0EF
:10081000C9FD4FF4FA71080701F02CFF0121880788
:1008200001F090FC09B000BD10B5FFF7A4FFFFF781
:100830008BFFFFF775FFFFF741FF67490860002056
:10084000664908606649086010BD10B5FFF736FFBD
:10085000614908600020614908606149086010BD75
:1008600070B5FFF72BFF044621465B48006802F095
:10087000DDFD05465B4902F09DFD12D221465A4836
:1008800002F014FB064654480168304602F0CEFDE3
:10089000054653480168284602F0BDFD50490860EE
:1008A00028E04D480168204602F0C0FD05464D494C
:1008B00002F080FD11D248480168204602F0B6FDE2
:1008C0000646494902F0B2FD0546454801682846FA
:1008D00002F0A1FD424908600CE03F480168204653
:1008E00002F0A4FD05463E480168284602F093FD4B
:1008F0003B490860384804603C493948006802F0C8
:100900008DFC3649086070BD10B50121880701F0E3
:10091000E2FE00284ED00121880701F0EDFE2648B6
:10092000007898B125480078002809DD2021284862
:1009300000F0F5FA0020214908701F49087039E0DD
:100940001E480078401C1D49087033E01B480078A1
:1009500010281FDD4FF480411D4800F0C4FA2449DF
:10096000096800EB41002249086008460068154903
:10097000086001201249087000201D4908602021EC
:10098000134800F0CAFA00200C49087001200A49F7
:1009900008700FE009480078401C084908704FF4BF
:1009A00080410B4800F09FFA1149096800EB4100B3
:1009B0000F49086010BD0000300000203100002009
:1009C0003C000020380000200000B040008076404D
:1009D000000C0140000801402400002028000020F5
:1009E0002C000020000034430000B443910A063F6D
:1009F0003400002010B56FF0040000F054FF2E48C2
:100A000000682E49B0FBF1F02D49087008460078C7
:100A100000EB4001C1EBC0104FF6FF7101EAC000CE
:100A20002849088010BD0146254A12784A434FF0F4
:100A3000E0235A6100229A611A46126942F00102CB
:100A40001A6100BF4FF0E022106900F001021AB1F4
:100A500000F48032002AF5D04FF0E022126922F033
:100A600001024FF0E0231A6100229A6170470146AB
:100A7000144A12884A434FF0E0235A6100229A61D7
:100A80001A46126942F001021A6100BF4FF0E022DB
:100A9000106900F001021AB100F48032002AF5D08A
:100AA0004FF0E022126922F001024FF0E0231A61B8
:100AB00000229A61704700001000002000127A00A6
:100AC0003E00002040000020014600BF704700BFEC
:100AD000704A128802F04002002AF9D0C2B26D4B6F
:100AE0001B1D1A80704710B586B00446012144F2E0
:100AF000040000F021FC4FF40070ADF81400032056
:100B00008DF8160018208DF8170005A9624800F02E
:100B100057F94FF48060ADF8140004208DF81700E9
:100B200005A95D4800F04CF925208DF80000032050
:100B30008DF801008DF8020001208DF80300684651
:100B400000F067FE01940020ADF80800ADF80A003F
:100B5000ADF80C00ADF810000C20ADF80E0001A9A6
:100B60004C4800F090FC012240F22551494800F029
:100B700022FD0121474800F012FD06B010BD70B5FE
:100B800040F22551434800F0FBFD002842D0414887
:100B900000F076FDC4B2432C05D101203F49087016
:100BA0003F48047014E03D480078002810DD302CE8
:100BB0000BDB392C09DC3A4838490978445437486A
:100BC0000078401C3549087002E000203349087065
:100BD0003248007805285CD1002030490870304840
:100BE0004078302817D12E48807830386421484327
:100BF0002B49C978303901EB810100EB41012848CC
:100C000000793038084427490860012026490870D7
:100C1000FFF71BFE3DE022484078312817D12048DD
:100C200080783038642148431D49C978303901EB58
:100C3000810100EB41011A48007930380844194914
:100C40000860022018490870FFF7FFFD21E01448F2
:100C5000407832280AD100201349087011490860F1
:100C6000FFF7F3FD11A001F04BFD12E00C484078B6
:100C700033280ED1FFF7F4FD0E4801680E4802F04C
:100C800015F9064602F05EFA85B229460BA001F07E
:100C900037FD70BD003801400008014044000020CD
:100CA000450000204C0000204A0000204132303036
:100CB000300000002800002000409C4563256400AF
:100CC0000948804709480047FEE7FEE7FEE7FEE7E0
:100CD000FEE7FEE7FEE7FEE7FEE7FEE7044805491C
:100CE000054A064B70470000BB050008ED000008F0
:100CF000C8000020C8060020C8020020C80200204A
:100D000010B50446CC48844208D10121042000F0EB
:100D10002DFB0021042000F029FB46E0C748844257
:100D200008D10121082000F021FB0021082000F05B
:100D30001DFB3AE0C248844208D10121102000F096
:100D400015FB0021102000F011FB2EE0BD4884426D
:100D500008D10121202000F009FB0021202000F013
:100D600005FB22E0B848844208D10121402000F070
:100D7000FDFA0021402000F0F9FA16E0B348844261
:100D800008D10121802000F0F1FA0021802000F03C
:100D9000EDFA0AE0AE48844207D10121801500F047
:100DA000E5FA0021A01500F0E1FA10BD10B501210F
:100DB000084600F0DBFA0021012000F0D7FA10BD50
:100DC0002DE9F041024600250026002000230024E2
:100DD000002791F803C00CF00F0591F803C00CF048
:100DE000100CBCF1000F03D091F802C04CEA0505CD
:100DF00091F800C0BCF1000F31D0146800202BE046
:100E00004FF0010C0CFA00F3B1F800C00CEA030635
:100E10009E4220D183004FF00F0C0CFA03F7BC4325
:100E200005FA03FC4CEA040491F803C0BCF1280F56
:100E300006D14FF0010C0CFA00FCC2F814C00AE015
:100E400091F803C0BCF1480F05D14FF0010C0CFA2A
:100E500000FCC2F810C0401C0828D1D31460B1F8BF
:100E600000C0BCF1FF0F34DD546800202EE000F11B
:100E7000080C4FF0010808FA0CF3B1F800C00CEAB6
:100E800003069E4221D183004FF00F0C0CFA03F7AA
:100E9000BC4305FA03FC4CEA040491F803C0BCF11E
:100EA000280F05D100F1080C08FA0CF8C2F81480DC
:100EB00091F803C0BCF1480F07D100F1080C4FF0C6
:100EC000010808FA0CF8C2F81080401C0828CED39C
:100ED0005460BDE8F0814FF6FF71018002218170FE
:100EE0000421C17070470246002093680B400BB18B
:100EF000012000E0002070470146886880B27047FA
:100F000002460020D3680B400BB1012000E0002016
:100F100070470146C86880B27047016170474161FF
:100F200070470AB1016100E041617047C1607047DC
:100F30004FF480320A4382618161826182698269F1
:100F4000704702460020434B18684FF680731840E4
:100F500040EA021008433F4B186070473E49C861A1
:100F60007047F0B50A46002300240021002500F058
:100F70000046B6F1004F02D1364EF16901E0354E20
:100F80007168C0F3034583B200F44016B6F5401F04
:100F900008D121F070612F4E766826F070662D4FD3
:100FA0007E6012E000F48016B6F5801F06D103269D
:100FB00006FA05F4A14341F0706106E0460D3601E2
:100FC00003FA06F6B14341F0706122B1460D3601D5
:100FD00003FA06F6314300F00046B6F1004F02D1A5
:100FE0001C4EF16101E01B4E7160F0BD30B5002276
:100FF0008B071C0F0F2303FA04F2164B08338C10D7
:1010000053F824309343134C08348D1044F82530A2
:1010100023468C1053F824308C07240F00FA04F474
:1010200023430C4C08348D1044F8253030BD0A4958
:10103000DC3108607047000000080140000C0140EE
:10104000001001400014014000180140001C014044
:10105000002001400000014000002042DF480068FD
:1010600040F00100DD49086008464068DC4908405E
:10107000DA49486008460068DA490840D7490860FC
:101080000846006820F4802008600846406820F484
:10109000FE0048604FF41F0088607047CF49096820
:1010A00021F48031CD4A11601146096821F4802174
:1010B0001160B0F5803F03D0B0F5802F0ED106E06F
:1010C000C649096841F48031C44A116007E0C34948
:1010D000096841F4A021C14A116000E000BF00BFCF
:1010E000704710B501460022002300204A11012A52
:1010F00002D1BA4C236806E0022A02D1B74C236A17
:1011000001E0B64C636A01F01F02012494401C40C8
:101110000CB1012000E0002010BD38B50020009087
:101120000024002500BF3120FFF7DBFF05460098B3
:10113000401C00900098B0F5A06F01D0002DF2D0B7
:101140003120FFF7CEFF08B1012400E00024204643
:1011500038BD01460020A14A106820F0F80040EA9E
:10116000C10010607047A049086070470246002027
:101170009A4B586820F47C1042EA01031843974BBD
:101180005860704798490866704701460020934AA6
:10119000506820F003000843506070478F48406853
:1011A00000F00C007047014600208C4A506820F087
:1011B000F00008435060704701460020874A50689D
:1011C00020F4E06008435060704701460020834AE5
:1011D000506820F4605040EAC1005060704729B167
:1011E0007E4A527A02437D4B5A7204E07B4A527A1D
:1011F00082437A4B5A7270477B49D83108607047F6
:1012000001460020754A506820F440400843506071
:1012100070470021714A20321170704A82F8201004
:10122000012802D004280AD104E001216B4A2032AF
:10123000117005E00521694A2032117000E000BFFD
:1012400000BF70476949086070476449096A0143F3
:10125000624A11627047654944390860704730B589
:1012600000210022002400235C4D6D6805F00C0174
:1012700021B1042905D0082923D105E05C4D056082
:1012800022E05B4D05601FE0544D6D6805F470125F
:10129000524D6D6805F48034022505EB92421CB96D
:1012A000544D554305600BE04C4D6D6805F4003519
:1012B0001DB1504D5543056002E04D4D554305604D
:1012C00002E04B4D056000BF00BF444D6D6805F066
:1012D000F0010909484D6B5C0568DD4045603F4DF4
:1012E0006D6805F4E061090A434D6B5C4568DD40BB
:1012F00085603A4D6D6805F46051C90A3E4D6B5CDE
:101300004568DD40C560354D6D6805F44041890B89
:101310003A4D6B5CC568B5FBF3F5056130BD29B18D
:101320002E4A526902432D4B5A6104E02B4A5269FE
:1013300082432A4B5A61704729B1284A9269024375
:10134000264B9A6104E0254A92698243234B9A61B5
:10135000704729B1214AD2690243204BDA6104E087
:101360001E4AD26982431D4BDA61704729B11B4A7C
:10137000D2680243194BDA6004E0184AD26882430B
:10138000164BDA60704729B1144A12690243134BB5
:101390001A6104E0114A12698243104B1A617047C6
:1013A00012494039086070470F49C86470470B49BB
:1013B000C87170470948406A40F080700749486228
:1013C000704701460020054A92680A400AB1012090
:1013D00000E0002070470149887270470010024009
:1013E0000000FFF8FFFFF6FE000042428004424288
:1013F00000127A0000093D00540000206400002023
:1014000010B50446FB48844209D101218803FFF747
:10141000ADFF00214FF48040FFF7A8FF32E0F6480F
:10142000844209D101214804FFF7ADFF00214FF4A8
:101430000030FFF7A8FF25E0F048844209D10121E0
:101440008804FFF7A0FF00214FF48020FFF79BFFE7
:1014500018E0EB48844209D10121C804FFF793FF4B
:1014600000214FF40020FFF78EFF0BE0E548844297
:1014700008D101210805FFF786FF00214FF48010F5
:10148000FFF781FF10BD2DE9F04786B005460E46F7
:101490000024A24600BFA1460027B08900B100BFCA
:1014A0002F462C8A4CF6FF700440F08804432C82AF
:1014B000AC894EF6F3100440B08831890843718935
:1014C00008430443AC81AC8A4FF6FF400440B08926
:1014D0000443AC8201A8FFF7C2FEC648874202D18E
:1014E000DDF810A001E0DDF80CA0A88900F40040B0
:1014F00040B10AEBCA0000EB0A1031684900B0FBAA
:10150000F1F807E00AEBCA0000EB0A103168890025
:10151000B0FBF1F86420B8FBF0F00401200964216D
:1015200001FB1089A88900F4004040B1322000EB93
:10153000C900B0FBF1F000F00700044308E03220DE
:1015400000EB09106421B0FBF1F000F00F00044340
:101550002C8106B0BDE8F0874FF4165101600021E0
:101560008180C18001810C214181002181817047EE
:1015700010B502460020108A4FF2FF0318400B8876
:101580004C8823438C882343CC8823431843108200
:1015900010BD0021018041808180C180704721B150
:1015A000828942F40052828104E082894DF6FF7301
:1015B0001A4082817047F0B50346002400260025BA
:1015C000002040F66A17B94200D100BF1846C1F3A7
:1015D000421401F01F06012707FA06F5012C01D17C
:1015E0000C3004E0022C01D1103000E014301AB1AC
:1015F00007682F43076002E00768AF430760F0BD4C
:101600001AB1838A0B43838202E0838A8B438382ED
:101610007047028A4FF6F0731A400282028A0A4328
:101620000282704782894FF2FF731A408281828959
:101630000A438281704721B1828942F0020282818D
:1016400004E082894FF6FD731A4082817047028A56
:101650004FF6DF731A400282028A0A430282704701
:1016600021B1028A42F48042028204E0028A4BF6EF
:10167000FF731A4002827047C1F3080282807047EC
:1016800001468888C0F308007047818941F0010154
:1016900081817047028BD2B20283028B42EA01221F
:1016A00002837047028B02F47F420283028B0A435B
:1016B0000283704721B1828A42F02002828204E0D4
:1016C000828A4FF6DF731A408282704721B1828A84
:1016D00042F01002828204E0828A4FF6EF731A40D1
:1016E0008282704721B1828A42F00802828204E03D
:1016F000828A4FF6F7731A408282704721B182893D
:1017000042F40042828103E08289C2F30E028281A8
:10171000704721B1828A42F40062828204E0828AA8
:101720004FF2FF731A4082827047828A4FF6FB7332
:101730001A408282828A0A438282704721B1828A59
:1017400042F00202828204E0828A4FF6FD731A4060
:101750008282704702460020B1F5007F00D100BFB1
:1017600013880B400BB1012000E00020704701F40A
:101770000072B2F5007F00D100BFCA4302807047FB
:1017800070B50246002400230025002040F66A16AA
:10179000B14200D100BFC1F3421501F01F03012681
:1017A00006FA03F3012D02D19689334006E0022D9B
:1017B00002D1168A334001E0968A33400C1201268A
:1017C00006FA04F41688344013B10CB1012000E08D
:1017D000002070BD10B50022002340F66A14A1421B
:1017E00000D100BF0A1201249440A3B2DC4304805C
:1017F00010BD000000380140004400400048004097
:10180000004C00400050004031490143314A116012
:10181000704770B5002100230F22C47804B32D4C0B
:10182000246804F4E064C4F5E064210AC1F104030F
:10183000CA40447804FA03F1847814402143090132
:10184000254C0678A155047804F01F050124AC400E
:1018500005786D11AD0005F1E025C5F8004109E0FE
:10186000047804F01F050124AC401C4D0678761165
:1018700045F8264070BD1A4A0A400243154B1B1F0B
:101880001A60704739B1134A121D12680243114B96
:101890001B1D1A6006E00F4A121D126882430D4B91
:1018A0001B1D1A607047042808D14FF0E021096918
:1018B00041F004014FF0E022116107E04FF0E02118
:1018C000096921F004014FF0E02211617047000026
:1018D0000000FA050CED00E000E400E080E100E02B
:1018E00080FFFF1F10B50446FE48844208D1012145
:1018F000C014FFF73BFD0021E014FFF737FDC4E003
:10190000B4F1804F08D101210846FFF73CFD0021CA
:101910000120FFF738FDB8E0F348844208D10121E7
:101920000220FFF730FD00210220FFF72CFDACE084
:10193000EE48844208D101210420FFF724FD002154
:101940000420FFF720FDA0E0E948844208D10121EE
:101950000820FFF718FD00210820FFF714FD94E090
:10196000E448844208D101211020FFF70CFD00213A
:101970001020FFF708FD88E0DF48844208D10121EC
:101980002020FFF700FD00212020FFF7FCFC7CE079
:10199000DA48844208D101214014FFF7E7FC002116
:1019A0006014FFF7E3FC70E0D548844209D10121BF
:1019B000C804FFF7DBFC00214FF40020FFF7D6FC42
:1019C00063E0D048844209D101210805FFF7CEFC2D
:1019D00000214FF48010FFF7C9FC56E0CA4884424A
:1019E00009D101214805FFF7C1FC00214FF4001087
:1019F000FFF7BCFC49E0C548844208D101214020E2
:101A0000FFF7C1FC00214020FFF7BDFC3DE0C048CE
:101A1000844208D101218020FFF7B5FC00218020FD
:101A2000FFF7B1FC31E0BB48844208D101218015A9
:101A3000FFF7A9FC0021A015FFF7A5FC25E0B6489B
:101A4000844209D101210804FFF790FC00214FF4E2
:101A50008030FFF78BFC18E0B048844209D10121A7
:101A60004804FFF783FC00214FF40030FFF77EFCB1
:101A70000BE0AB48844208D101218804FFF776FCD3
:101A800000214FF48020FFF771FC10BD0022028876
:101A9000944B98420ED0994B98420BD0B0F1804FA6
:101AA00008D0914B984205D0904B984202D0904B71
:101AB000984204D14FF68F731A404B881A438D4BCE
:101AC000984207D08C4B984204D04FF6FF431A40FF
:101AD000CB881A4302808B8883850B880385814BD2
:101AE00098420BD0854B984208D08B4B984205D03A
:101AF0008A4B984202D08A4B984201D10B7A0386D6
:101B000001238382704770B5002400220023058CD6
:101B10004FF6FE7635400584028C8388048B4FF6A1
:101B20008F752C40B51E2C400D882C43751E2A4005
:101B30000D892A434D882A436A4DA8420BD06F4D28
:101B4000A84208D0744DA84205D0744DA84202D0D6
:101B5000734DA84213D14FF6F7752A404D892A4399
:101B60004FF6FB752A408D882A434FF6FF652B40C0
:101B70004FF6FF552B408D892B43CD892B43838016
:101B80000483CD888586028470BD70B50024002250
:101B90000023058C4FF6EF7635400584028C838850
:101BA000048B48F6FF752C404FF6FF452C400D88FE
:101BB0004FF6FF7606EA05252C434FF6DF752A40DF
:101BC0000D8906EA05152A434D8806EA05152A43BC
:101BD000444DA84202D0494DA8421DD14FF67F7511
:101BE0002A404D894FF6FF7606EA05152A434FF63F
:101BF000BF752A408D8806EA05152A434FF6FF3542
:101C00002B404FF2FF752B408D8906EA85052B434B
:101C1000CD8906EA85052B4383800483CD8805871B
:101C2000028470BD70B5002400220023058C4FF69D
:101C3000FF6635400584028C8388848B4FF68F7550
:101C40002C404FF6FC752C400D882C434FF6FF5569
:101C50002A400D894FF6FF7606EA05252A434D886E
:101C600006EA05252A431F4DA84202D0234DA8426B
:101C70001DD14FF2FF752A404D894FF6FF7606EAD7
:101C800005252A434FF6FF352A408D8806EA0525AB
:101C90002A434EF6FF752B404DF6FF752B408D897C
:101CA00006EA05152B43CD8906EA05152B438380EB
:101CB0008483CD888587028470BD70B5002200239F
:101CC0000024058C4EF6FF7635400584038C84880D
:101CD000828B48F6FF752A404FF6FF452A400D8853
:101CE00020E00000002C01400004004000080040FB
:101CF000000C00400010004000140040003401407F
:101D0000004C0140005001400054014000180040C8
:101D1000001C004000200040004001400044014001
:101D2000004801404FF6FF7606EA05252A434DF6A6
:101D3000FF752B400D8906EA05352B434D8806EAD1
:101D400005352B43FA4DA84202D0FA4DA84208D1DE
:101D50004BF6FF752C408D894FF6FF7606EA851508
:101D60002C4384808283CD88A0F84050038470BDCA
:101D7000828B4FF2FF331A408283828B4FF6FF73C0
:101D800003EA01231A4382837047F0B50C461546D7
:101D9000002200210026078C4EF6FF7C07EA0C0784
:101DA0000784828B018C4FF6FF7707EA043640F6F2
:101DB000FF473A404FF6FF7707EA05273A434FF6C9
:101DC000FF7707EA03373A43D94FB8420ED0D94FCD
:101DD000B8420BD0B0F1804F08D0D74FB84205D0F1
:101DE000D64FB84202D0D64FB84206D14DF6FF7753
:101DF000394046F48057394305E047F6FF573940EC
:101E000044F48057394382830184F0BD828B4FF6BE
:101E1000F3731A408283828B0A4382837047F0B542
:101E20000C461546002200210026078C4FF6FF6C59
:101E300007EA0C070784828B018C4FF6FF7707EACD
:101E400004264FF60C773A404FF6FF7707EA031760
:101E50002F433A43B64FB8420ED0B64FB8420BD0DC
:101E6000B0F1804F08D0B44FB84205D0B34FB8425C
:101E700002D0B34FB84206D14FF6FF57394046F46F
:101E80008077394305E04FF2FF57394044F48077BB
:101E9000394382830184F0BD028B4FF2FF331A4035
:101EA0000283028B4FF6FF7303EA01231A43028376
:101EB0007047F0B50C461546002200210026078C1D
:101EC0004FF6EF7C07EA0C070784028B018C4FF674
:101ED000FF7707EA041640F6FF473A404FF6FF77D0
:101EE00007EA03373A434FF6FF7707EA05273A43F5
:101EF0008F4FB8420ED08F4FB8420BD0B0F1804F09
:101F000008D08D4FB84205D08C4FB84202D08C4FCC
:101F1000B84206D14FF6DF77394046F01007394313
:101F200005E04FF65F77394044F0100739430283EC
:101F30000184F0BD028B4FF6F3731A400283028BCB
:101F40000A4302837047F0B50C4615460022002173
:101F5000068C4FF6FE773E400684028B018C4FF6CE
:101F60000C7632407E1C06EA03162E433243704E36
:101F7000B0420ED06F4EB0420BD0B0F1804F08D0BF
:101F80006D4EB04205D06D4EB04202D06C4EB042A4
:101F900006D14FF6FD76314044F00106314305E0AD
:101FA0004FF6F576314044F0010631430283018457
:101FB000F0BD70B505460C465D4885420ED05D48C3
:101FC00085420BD0B5F1804F08D05B48854205D0E3
:101FD0005A48854202D05A48854200D100E000BFED
:101FE000208850B92389A28861882846FFF7ABFF73
:101FF000E1882846FFF79EFF25E0208804280AD1C3
:102000002389A28861882846FFF753FFE188284684
:10201000FFF742FF17E0208808280AD12389A28809
:1020200061882846FFF7FBFEE1882846FFF7EEFEB1
:1020300009E02389A28861882846FFF7A6FEE18887
:102040002846FFF795FE70BD2DE9F04105460C4688
:1020500000260127608808B9022600E00026A08833
:10206000012801D1022700E001272088A0B9238997
:10207000A28861882846FFF766FFE1882846FFF7B7
:1020800059FF23893A4631462846FFF712FFE18877
:102090002846FFF701FF13E02389A28861882846BC
:1020A000FFF707FFE1882846FFF7F6FE23893A4647
:1020B00031462846FFF747FFE1882846FFF73AFFF9
:1020C000BDE8F0810A884B881A438B881A43CB8875
:1020D0001A430B891A434B891A438B891A43A0F878
:1020E000442070474FF6FF71818000210180C1803C
:1020F0004180017270470021018041808180C18050
:10210000018141818181C18170470021018041802D
:10211000012181800021C18001817047002101805F
:1021200041808180C18001814181818170470000AF
:10213000002C014000340140000400400008004031
:10214000000C004021B1028842F00102028004E04C
:1021500002884FF6FE731A400280704731B1B0F822
:10216000442042F40042A0F8442005E0B0F84420A6
:10217000C2F30E02A0F8442070471AB183890B43C2
:10218000838102E083898B4383817047818270471A
:1021900041EA0203A0F8483070471AB183890B4323
:1021A000838102E083898B438381704701894FF6E5
:1021B000F8721140018170470A46002101894FF6EB
:1021C0008F73194011430181704730B504460D46A5
:1021D00029462046FFF7F0FF208940F007002081C4
:1021E00030BD2DE9F04104460D4616461F46602DD0
:1021F00006D13B46012231462046FFF75AFE05E054
:102200003B46012231462046FFF79DFE29462046E7
:10221000FFF7D2FF208940F007002081BDE8F08160
:1022200030B50C4600210189C9B24FF6FF7505EAA9
:102230000325154325432943018130BD2DE9F04194
:1022400005460E4617469846002443463A46314610
:102250002846FFF7E5FF2C894FF6F870044044F05C
:1022600007044FF68F70044044F070042C81BDE8E1
:10227000F081F0B504460D4616461F463B463246F1
:1022800029462046FFF7CCFF208940F4804020817A
:10229000F0BD0185828270470A46002101884FF611
:1022A0008F731940114301807047F0B50C461546F5
:1022B0001E460021002200230189028B038C4FF669
:1022C000F877394021434FF6FC473A4040F2011776
:1022D0003A434FF6DD773B404FF6FF7707EA0617A4
:1022E0002F433B43018102830384F0BD0A46002152
:1022F000018B4FF68F7319401143018370470A46D3
:102300000021018B48F6FF7319404FF6FF7303EA73
:1023100002231943018370470A460021818B4FF63F
:102320008F7319401143818370470A460021818BC6
:1023300048F6FF7319404FF6FF7303EA022319436F
:102340008183704721B1028842F08002028004E05C
:1023500002884FF67F731A400280704721B182884D
:1023600042F00402828004E082884FF6FB731A4038
:102370008280704721B1828842F00802828004E0A6
:1023800082884FF6F7731A408280704721B18288A5
:1023900042F00102828004E082884FF6FE731A4008
:1023A000828070470A460021018B4FF6F77319406F
:1023B0001143018370470A460021018B4FF2FF73DE
:1023C00019404FF6FF7303EA022319430183704754
:1023D0000A460021818B4FF6F77319401143818320
:1023E00070470A460021818B4FF2FF7319404FF668
:1023F000FF7303EA02231943818370470A460021D1
:10240000018B4FF6FB7319401143018370470A4655
:102410000021018B4FF6FF3319404FF6FF7303EA9B
:1024200002231943018370470A460021818B4FF62E
:10243000FB7319401143818370470A460021818B49
:102440004FF6FF3319404FF6FF7303EA0223194397
:10245000818370470A460021018B4FF67F73194034
:102460001143018370470A460021018BC1F30E011D
:102470004FF6FF7303EA02231943018370470A46AC
:102480000021818B4FF67F73194011438183704780
:102490000A460021818BC1F30E014FF6FF7303EA58
:1024A00002231943818370470A460021018C4FF6AD
:1024B000FD7319401143018470470A460021018CC5
:1024C0004FF6F77319401143018470470A46002103
:1024D000018C4FF6DF7319404FF6FF7303EA0213C6
:1024E0001943018470470A460021018C4FF67F731F
:1024F00019404FF6FF7303EA021319430184704732
:102500000A460021018C4FF6FF5319404FF6FF7326
:1025100003EA02231943018470470A460021018C13
:102520004FF2FF7319404FF6FF7303EA022319437A
:10253000018470470A460021018C4DF6FF73194053
:102540004FF6FF7303EA023319430184704730B535
:10255000002301248C40A3B2048C9C430484048C8B
:1025600002FA01F5ADB22C43048430BD30B500232E
:1025700004248C40A3B2048C9C430484048C02FA8F
:1025800001F5ADB22C43048430BD70B50346002084
:1025900000241846183001258D40ACB21D8CA5438F
:1025A0001D8409B1082909D100EB6100056825F0F7
:1025B000700505600568154305600EE00D1FC5F345
:1025C0004E052844056825F4E045056005684FF68A
:1025D000FF7606EA02263543056070BD21B1028808
:1025E00042F00202028004E002884FF6FD731A40B6
:1025F0000280704721B1028842F00402028004E0A8
:1026000002884FF6FB731A400280704721B182881E
:1026100042F08002828004E082884FF67F731A4085
:102620008280704702884FF6F7731A400280028852
:102630000A430280704782884FF68F731A40828067
:1026400082880A438280704702894FF6F8731A40E5
:10265000028102890A430281704702894FF67F7323
:102660001A40028102890A430281704781847047BF
:1026700081857047818670470187704781877047E1
:10268000A0F84010704702884FF6FF431A400280BE
:1026900002880A43028070470146888E70470146CF
:1026A000088F70470146888F70470146B1F8400097
:1026B00070470146888C70470146088D7047024676
:1026C0000020138A0B400BB1012000E0002070476E
:1026D000CA430282704730B502460020002300241E
:1026E000158A05EA0103958905EA010413B10CB1C5
:1026F000012000E0002030BDCA43028270477047CD
:102700000FB4044910B503AA029800F0D3F810BC26
:102710005DF814FB500000202DE9F0410E46044600
:10272000002020622046E168884730B3252805D084
:10273000D4E901219047206A401CF2E7E168204675
:1027400000278847050018D0A5F14100192802D8B4
:1027500020354FF400673246294620462760FDF7B2
:10276000FFFC40B1012804D0F61D26F0070608360C
:10277000D8E7361DD6E72846DAE7206ABDE8F081BB
:102780002DE9F0410646002410687529314616A54A
:1027900010D0AFF30080002802DA404213A507E012
:1027A00031688A0701D512A502E0490704D511A5B1
:1027B000012401E0AFF3008000210A2206F1240782
:1027C00009E0B0FBF2FCB0FBF2F302FB1C0030307E
:1027D00078541846491C0028F3D123462A4630462F
:1027E000BDE8F04100F00CB8000000002D00000032
:1027F0002B000000200000007047704770477047B2
:102800002DE9F0470D4699469246044600F124080A
:102810000168880604D5E06921F01001216000E01C
:102820000120A84201DD471B00E00027A1697A19B9
:1028300002EB0900081AA0612078C00602D42046E5
:10284000AFF30080002608E0D4E901211AF8060061
:102850009047206A401C761C20624E45F4DB2078AD
:10286000C0060AD52046AFF3008006E0D4E9012176
:1028700030209047206A401C2062381EA7F10107D3
:10288000F4DC07E0D4E9012118F805009047206A3C
:10289000401C2062281EA5F10105F3DC2046AFF3A1
:1028A00000802078000602D50220BDE8F0870120D4
:1028B000FBE70000074B70B50D467B4400F011F8B4
:1028C0000446284600F020F810B14FF0FF3070BDEC
:1028D000204670BD11E2FFFF01694A1C02610878C1
:1028E000704700B58FB0CDE9013100210591054950
:1028F0007944CDE9031011466846FFF70DFF0FB08C
:1029000000BD0000E5FFFFFF007B00F08000704786
:10291000754600F02BF8AE4605006946534620F098
:102920000700854618B020B5FEF7D8F9BDE820406D
:102930004FF000064FF000074FF000084FF0000B7B
:1029400021F00701AC46ACE8C009ACE8C009ACE82E
:10295000C009ACE8C0098D46704710B50446AFF316
:1029600000802046BDE81040FDF70CBC00487047D1
:102970006800002021F00042A2F16052B2F5801FF1
:1029800001F0004328BFD2F17F6C0BD95FEA001C35
:1029900043EAC20242EB507018BF704728BF20F0D4
:1029A00001007047B2F5801FBCBF184670474FEA60
:1029B000410C1CF5001F02D2084600F0F6BC70B5B1
:1029C00000F020FA00000089FFF7F6BF4FF000404A
:1029D000A0F58000704700002DE9C04130B4DFF859
:1029E000A0C23CEA111418BF3CEA131400F0EC80BA
:1029F00081EA03051CEA111444EAD57418BF1CEAE5
:102A0000131500F0C780A4EB05044FF0004545EA1C
:102A1000C12145EAC32341EA505143EA525304F12C
:102A20007F74994204F500344FEAC0204FEAC22275
:102A300008BF904200F09C804FEA13650FF24016E9
:102A4000765D4FEA134506FB05F7C7F1807706FB75
:102A500007F74FEAD737A7FB03687642C8F58038F7
:102A6000A7FB06CE38BFA8F1010807FB08E64FF028
:102A7000000EA6FB028CE6FB03CEDCF1000CCEF1CF
:102A8000004E38BFAEF1010EA6FB0C584FF0000708
:102A90004FF00005E6FB0E87A1FB08C6A0FB07CEA2
:102AA00016EB0E0645F10005E1FB076515F1E04E5A
:102AB0007EBFA4F580345FEA46066D4116F18007BB
:102AC00045F100054FEA17274FEA066647EA056712
:102AD000A6F1DE46B6F1805F4FEA15251FD93846CC
:102AE00024F0010C05EBC471BCF1FE6F01EB0C117D
:102AF00002D8F0BCBDE8008124425CBF01F5801E15
:102B00009EEAC47F02D4F0BCBDE80081244238D4E0
:102B1000F0BCA1F1C041BDE8004100F0C1B94FEAED
:102B2000D22242EA43524FEAD323A7FB02864FEA5E
:102B3000D02040EA415007FB03661EEA0E0F4FEA21
:102B4000D12105FB026658BFA6EB0056B6EB005636
:102B50004FEA520E4EEAC37E18EB0E0E56EB530EA2
:102B6000BDD518EB02085E417F1C55F10005B6E7A4
:102B70004FF480154FF000074FF000064FF00008AB
:102B8000ADE7F0BC4FF0000001F1C04101F00041A1
:102B9000BDE8008111EA0C1F0CEA131500D00CE00F
:102BA00013EA0C1F00F025804FF00000F0BC81EA12
:102BB000030101F00041BDE80081F0BCBDE8004127
:102BC00081EA030100F06CB9F0BCBDE8004170B5CA
:102BD00000F018F9097EFC3E00F007B881EA030115
:102BE0004FF0000001F00041704781EA030100F05E
:102BF00057B9F0BCBDE800414FF0000021497047D3
:102C0000FFFDFBF9F7F5F4F2F0EEEDEBE9E8E6E4B1
:102C1000E3E1E0DEDDDBDAD8D7D5D4D3D1D0CFCD38
:102C2000CCCBCAC8C7C6C5C4C2C1C0BFBEBDBCBB71
:102C3000BAB9B8B7B6B5B4B3B2B1B0AFAEADACAB6C
:102C4000AAA9A8A8A7A6A5A4A3A3A2A1A09F9F9E46
:102C50009D9C9C9B9A9999989797969595949393F8
:102C6000929191908F8F8E8E8D8C8C8B8B8A89898F
:102C70008888878786858584848383828281818012
:102C80000000FF070000F87FB0FA80F310FA03F1AC
:102C90000AD0C3F11D0303F580634FEA41504FEAA8
:102CA000035202EBD12170474FF000007047000043
:102CB000DFF848C170B51CEA111E1EBF1CEA1315CF
:102CC0009EEA0C0F95EA0C0F00F06F8081EA030476
:102CD00023EA4C134EEAD47E21EA4C1141F48011D0
:102CE00043F48013AE44A1FB024CA0FB0365AEF19C
:102CF0007F7E361955EB0C05A1FB034C4CF100030C
:102D0000A0FB021C16EB0C06654153F100030942BF
:102D100018BF46F0010613F4007F0BD14FEA0331D0
:102D20004FEA0530340341EA155140EA16506FF07E
:102D300003020AE04FEAC3214FEAC520F40241EA48
:102D4000555140EA56506FF0020202EB2E4201EB61
:102D5000025585EACE710AD05FEA440C18BF24F010
:102D6000004450F1000041F1000120EAD47040F22B
:102D7000FE7C624500D270BDA84214BF4FF0804473
:102D80004FF04044002E08BF0024BEF1806FA8BF62
:102D9000A1F1C041BDE8704080F282804FF0000098
:102DA00001F1C04101F0004170479EEA0C0F0CEAAE
:102DB000131518BF95EA0C0F06D04FF0000081EAFA
:102DC000030E0EF0004170BD00F01CF88900013EBA
:102DD00000F007B800F009B84FEA430C5FEA5C5C0A
:102DE00008D081EA030100F05BB84FEA410C5FEACA
:102DF0005C5CF6D14FF00000014970470000FF070E
:102E00000000F87F0EF1020E2EF0030E5EF8046B48
:102E1000364205D4012A43EB030515F5001F12D8ED
:102E2000012841EB010C1CF5001F0CD80ED14FEA14
:102E3000D17C15F5001F0CEB4C0C0CF1020C08BFFB
:102E40004CEBD37C04E04FF0080C01E04FEAD37C5C
:102E50000CEB4C0526FA05F606F00706B6F1040C55
:102E600006D20EEB860CBDE870404CF0010C6047BA
:102E7000DFE80CF0090B02024FF000414FF00000B8
:102E8000A1F5002170BD19461046012851EB01043F
:102E900018BFD4F5001484BF002001F0004170BDBC
:102EA0000808A0F500114FEA3101704790EA010FC0
:102EB00048BF81F0004100F1C082421A3CBF801A35
:102EC00089184FEAD0524FF07F4C1CEA410FA2EB19
:102ED000D15318BF9CEA026F00F03B804FF0004CCA
:102EE0004CEA00204CEA012121FA03FC10EB0C0C07
:102EF0001ED202F1FF325FEA1C2040EBC25038BF05
:102F000070471CF07F0F4FEA400C18BFBCF17F4F99
:102F100038BF7047C3F12003994008BF20F001007B
:102F2000BCF17F4F38BF7047A0F1C04000F03DBA00
:102F30004FEA3C00000A40EBC25028BF1CF0FF0FD4
:102F40004FEA400CE6D018BFBCF17F4F38BF704746
:102F5000EAE79CEA026F05D010EA5C0F08BF00F0B8
:102F60000040704710B500F0DAF900BF64FBBE3EC8
:102F7000401058BFC0F14040491058BFC1F1404116
:102F80008142EFF3008070474FF47F0C1CEAD012AF
:102F90001EBF1CEAD11392EA0C0F93EA0C0F00F04B
:102FA000858090EA010F48BF42F4807240F4000C23
:102FB00041F400002CF07F4120F07F4000B58142B9
:102FC000A2EB03020FF2081CACEB504EC0F1000064
:102FD0009EF800E04FEA4E0E00FB0EFC38BF4900A1
:102FE0004FEA2C1C02F5FA020CFB0EF34FEACE1E40
:102FF0004FEA112C4FEAC1210EEB635E42EB2242F5
:103000000EFB0CFC4FEA1C5300FB03114FEA112C82
:103010004FEA01310EFB0CFC4FEADC4C00FB0C11BB
:10302000C14228BF09184CEB03335DF804EB10EBE9
:10303000410143EBC250B2F57C0F38BF704729D530
:1030400012F0F00F1CBF00F1C04000F000407047CC
:10305000008182838485868788898B8C8D8E8F9171
:103060009293959697999A9C9D9FA0A2A3A5A7A895
:10307000AAACAEB0B2B3B5B7B9BCBEC0C2C5C7C9C1
:10308000CCCED1D4D7D9DCDFE2E6E9ECF0F3F7FA25
:10309000FE0000004FEA400C0CF1807CBCF17E4F3A
:1030A00028BF7047B0F1C04000F07FB990EA010F2F
:1030B0000CEAD11348BF42F48072624538BF6345C1
:1030C00007D213F47F0F16D080EA010000F0004011
:1030D000704710B500F023F9097EFC3E00F005B8FA
:1030E00080EA010000F00040704780EA010000F033
:1030F000004000F05AB912F47F0F04BF0248704735
:1031000080EA010000F051B90000C07F41000B0EC1
:10311000D3F19E0208D950F400034FEA032323FAA7
:1031200002F048BF4042704710B500F0F8F800BF09
:1031300049922480002070476FF0004282EA20000C
:1031400070470000C10DD1F19E0206DB4FEA00235B
:1031500043F0004323FA02F07047004207D54FEADC
:103160004001B1F1FE4F02D24FF00000704710B5A0
:1031700000F0D5F849922480002070476FEA2000C3
:103180007047000010F0004148BF4042B0FA80F3A1
:1031900010FA03F2C3F19D030BD051EAC35101EBC6
:1031A0001220530638BF704700F1010008BF20F01D
:1031B0000100704750EA010C00F113801CF5000F6C
:1031C00058BFBCF5000F01D48842704707D710F5EF
:1031D000000F58BF11F5000F15D48842704789427F
:1031E00070471CF5000F04D5BCF5000FF7D58142E0
:1031F00070474FF0807C1CEB400F38BF1CEB410F39
:1032000001D28142704710B500F089F8922449003C
:103210004FF000504FF08051FFF7AABE4FF47F0CE3
:103220001CEAD0121EBF1CEAD11392EA0C0F93EADB
:103230000C0F00F0478090EA010F48BF42F4807203
:103240004FF0004C4CEA00204CEA012102EB030253
:10325000A0FB0113A2F50002002918BF43F00103EF
:103260005B0028BF4FEA330342EB22425FEA132C94
:103270004CEBC2502EBFBCEB436FB2F57C0F7047D6
:103280004FEA036CBCF1004F08BF20F00100B2F51B
:103290007C0F38BF70470BD582F0FF0212F5803FDC
:1032A000C8BF704700F1C040D8BF00F00040704771
:1032B00000F5000C5FEA4C0C48BF7047B0F1C0400D
:1032C00000F073B890EA010F0CEAD11348BF42F442
:1032D0008072624538BF634504D280EA010000F085
:1032E0000040704710B500F01AF800BF8900013E99
:1032F00000F007B800F009B85FEA410C5FEA1C6C07
:1033000008D080EA010000F050B85FEA400C5FEAA4
:103310001C6CF6D14FF00040A0F5800070470EF114
:10332000020E2EF0030E5EF8044B244204D44FEA42
:103330004102B2F17F4F11D84FEA4003B3F17F4F02
:103340000CD80ED14FEAD07CB2F17F4F0CEB4C0C75
:103350000CF1020C08BF4CEBD17C04E04FF0080CE0
:1033600001E04FEAD17C0CEB4C0324FA03F404F0A7
:103370000704B4F1040C06D20EEB840CBDE8104037
:103380004CF0010C6047DFE80CF0070802024FF038
:103390000040A0F5800010BD0846420018BFD2F1E1
:1033A000807288BF00F0004010BDFF2141EAD0507C
:1033B000C005704751EA000C00F113801CF5000FA6
:1033C00058BFBCF5000F01D48142704707D711F5F3
:1033D000000F58BF10F5000F15D481427047894285
:1033E00070471CF5000F04D5BCF5000FF7D58842D7
:1033F00070474FF0807C1CEB410F38BF1CEB400F37
:1034000001D28842704780EA010081EA000180EA27
:103410000100FFF7F8BE80F0004090EA010F7FF551
:103420004CAD81F0004100F008B8000090EA010FB7
:1034300048BF81F000413FF540AD421A04D882F008
:103440000042A0EB020011444FEAD0524FF07F4CF3
:103450001CEA410FA2EBD15318BF9CEA026F4AD07D
:103460004FF0004C4CEA00204CEA012121FA03FC09
:10347000B0EB0C0C0FD412F0FE0F36D05FEA4C000C
:103480001DD5001240EBC25038BF70471CF03F0FF3
:1034900018BF70470BE0A2F101025FEA1C2040EB6D
:1034A000C25038BF70471CF07F0F18BF7047C3F180
:1034B0002003994014BF401E20F00100704780088F
:1034C0004FEA122308BF7047B0FA80FCA2EB0C024F
:1034D000CCF1280C60FA0CF093EA122F04BF00EB39
:1034E000C25070474FEAC3707047130A5FEADC109E
:1034F00008BF7047F6E79CEA026F04D010EA5C0F41
:1035000008BF0020704710B5FFF709FF40DFF63E07
:1035100081F00040704700003835000800000020AE
:103520006800000028010008A0350008680000209D
:1035300060060000440100080000000000000000D8
:10354000000000000000000000A24A04000000008B
:103550000000000001020304060708090000000043
:10356000000000000000000001000000000000005A
:10357000000000000000000000000000000000004B
:10358000000000000000000000000000000000003B
:1035900001020304010203040607080902040608E5
:04000005080000ED02
:00000001FF
